:020000040800F2
:100000000000032051380008F13B0008F73B0008CE
:10001000FD3B0008033C0008093C0008000000000C
:100020000000000000000000000000000F3C00087D
:100030001D3C0008000000002B3C0008393C000873
:10004000A1380008A1380008A1380008A13800082C
:10005000A1380008A1380008A1380008A13800081C
:10006000A1380008A1380008A1380008A13800080C
:10007000A1380008A1380008A1380008A1380008FC
:10008000A1380008A1380008A1380008A1380008EC
:10009000A1380008A1380008A1380008A1380008DC
:1000A000A1380008A1380008A1380008A1380008CC
:1000B000A1380008A1380008A1380008A1380008BC
:1000C000A1380008A1380008A1380008A1380008AC
:1000D000A13800085D3C0008A1380008A1380008DC
:1000E000A1380008A1380008A1380008A13800088C
:1000F000A1380008A1380008A1380008A13800087C
:10010000A1380008A1380008A1380008A13800086B
:10011000A1380008A1380008493C0008A1380008AF
:10012000A1380008A1380008A1380008A13800084B
:10013000A1380008A1380008A1380008A13800083B
:10014000A1380008A1380008A1380008A13800082B
:10015000A1380008A1380008A1380008A13800081B
:10016000A1380008A1380008A1380008A13800080B
:10017000A1380008A1380008A1380008A1380008FB
:10018000A1380008A1380008A1380008A1380008EB
:10019000A1380008A1380008A1380008A1380008DB
:0C01A000A1380008A1380008A1380008B0
:1001B00010B5054C237833B9044B13B10448AFF3A1
:1001C00000800123237010BD780000200000000093
:1001D0000C50000808B5034B1BB103490348AFF3AB
:1001E000008008BD000000007C0000200C500008CA
:1001F00010F8012B11F8013B012A28BF9A42F7D0D1
:10020000D01A7047034613F8012B002AFBD1181AA5
:1002100001387047000000000000000000000000EE
:1002200001F0FF01102A2BDB10F0070F08D010F8A7
:10023000013B013A8B422DD010F0070F42B3F6D1AB
:10024000F0B441EA012141EA014122F007047FF0C4
:1002500000070023F0E80256083C85EA010586EA1B
:10026000010685FA47F5A3FA87F586FA47F6A5FA57
:1002700087F68EB9EED1F0BC01F0FF0102F0070263
:1002800032B110F8013B013A83EA010313B1F8D10E
:100290000020704701387047002D06BF35460338EF
:1002A000073815F0010F07D1013015F4807F02BF28
:1002B000013015F4C03F0130F0BC0138704700BF79
:1002C00053B94AB9002908BF00281CBF4FF0FF31BD
:1002D0004FF0FF3000F074B9ADF1080C6DE904CEB9
:1002E00000F006F8DDF804E0DDE9022304B0704711
:1002F0002DE9F047089D04468E46002B4DD18A42D9
:10030000944669D9B2FA82F252B101FA02F3C2F10B
:10031000200120FA01F10CFA02FC41EA030E94409C
:100320004FEA1C48210CBEFBF8F61FFA8CF708FBBD
:1003300016E341EA034306FB07F199420AD91CEB95
:10034000030306F1FF3080F01F81994240F21C81C7
:10035000023E63445B1AA4B2B3FBF8F008FB10330F
:1003600044EA034400FB07F7A7420AD91CEB040444
:1003700000F1FF3380F00A81A74240F20781644414
:10038000023840EA0640E41B00261DB1D440002399
:10039000C5E900433146BDE8F0878B4209D9002DFD
:1003A00000F0EF800026C5E9000130463146BDE887
:1003B000F087B3FA83F6002E4AD18B4202D38242F1
:1003C00000F2F980841A61EB030301209E46002DA0
:1003D000E0D0C5E9004EDDE702B9FFDEB2FA82F2F5
:1003E000002A40F09280A1EB0C014FEA1C471FFA53
:1003F0008CFE0126200CB1FBF7F307FB131140EA3A
:1004000001410EFB03F0884208D91CEB010103F106
:10041000FF3802D2884200F2CB804346091AA4B2C8
:10042000B1FBF7F007FB101144EA01440EFB00FE9C
:10043000A64508D91CEB040400F1FF3102D2A64501
:1004400000F2BB800846A4EB0E0440EA03409CE7A0
:10045000C6F12007B34022FA07FC4CEA030C20FA4D
:1004600007F401FA06F31C43F9404FEA1C4900FA6D
:1004700006F3B1FBF9F8200C1FFA8CFE09FB1811EA
:1004800040EA014108FB0EF0884202FA06F20BD95D
:100490001CEB010108F1FF3A80F08880884240F2AD
:1004A0008580A8F102086144091AA4B2B1FBF9F0F1
:1004B00009FB101144EA014100FB0EFE8E4508D9EC
:1004C0001CEB010100F1FF346CD28E456AD9023871
:1004D000614440EA0840A0FB0294A1EB0E01A14256
:1004E000C846A64656D353D05DB1B3EB080261EBC4
:1004F0000E0101FA07F722FA06F3F1401F43C5E99E
:10050000007100263146BDE8F087C2F12003D840D3
:100510000CFA02FC21FA03F3914001434FEA1C4715
:100520001FFA8CFEB3FBF7F007FB10360B0C43EA07
:10053000064300FB0EF69E4204FA02F408D91CEBB7
:10054000030300F1FF382FD29E422DD902386344B5
:100550009B1B89B2B3FBF7F607FB163341EA034155
:1005600006FB0EF38B4208D91CEB010106F1FF38A4
:1005700016D28B4214D9023E6144C91A46EA00469B
:1005800038E72E46284605E70646E3E61846F8E62D
:100590004B45A9D2B9EB020864EB0C0E0138A3E776
:1005A0004646EAE7204694E74046D1E7D0467BE757
:1005B000023B614432E7304609E76444023842E7CF
:1005C000704700BF80B588B000AF78600B467B8075
:1005D00007F10C0300221A605A609A60DA601A610F
:1005E000786800F013F87B88FB6001233B610023EF
:1005F0007B610223BB6107F10C031946786800F0A8
:1006000019FE00BF2037BD4680BD000080B58AB00E
:1006100000AF78607B684F4A93420ED100237B6223
:100620004D4B1B6B4C4A43F0010313634A4B1B6B4E
:1006300003F001037B627B6A87E07B68474A934251
:100640000ED100233B62444B1B6B434A43F0020331
:100650001363414B1B6B03F002033B623B6A74E084
:100660007B683F4A93420ED10023FB613A4B1B6BE0
:10067000394A43F004031363374B1B6B03F0040345
:10068000FB61FB6961E07B68364A93420ED100232F
:10069000BB61314B1B6B304A43F0080313632E4B95
:1006A0001B6B03F00803BB61BB694EE07B682E4AFD
:1006B00093420ED100237B61274B1B6B264A43F0EC
:1006C00010031363244B1B6B03F010037B617B69E6
:1006D0003BE07B68254A93420ED100233B611E4BD1
:1006E0001B6B1D4A43F0200313631B4B1B6B03F072
:1006F00020033B613B6928E07B681D4A93420ED191
:100700000023FB60144B1B6B134A43F0400313633D
:10071000114B1B6B03F04003FB60FB6815E07B682B
:10072000144A93420ED10023BB600B4B1B6B0A4A49
:1007300043F080031363084B1B6B03F08003BB6023
:10074000BB6802E00C4803F061FC00BF2837BD46DF
:1007500080BD00BF0000024000380240000402409B
:1007600000080240000C0240001002400014024049
:1007700000180240001C02402450000880B582B0DE
:1007800000AF78600B467B807B881946786800F064
:10079000FDFE00BF0837BD4680BD000080B582B0B9
:1007A00000AF78600A4A7B681360094B01225A60E7
:1007B000074B44F61F62DA60054801F0E9FB034687
:1007C000002B01D003F064F900BF0837BD4680BD9F
:1007D0009400002080B500AF024801F029FC00BF62
:1007E00080BD00BF9400002080B483B000AF78606B
:1007F000054B1B680133044A136000BF0C37BD462C
:100800005DF8047B704700BFDC00002080B400AFBF
:10081000034B1B681846BD465DF8047B704700BF5C
:10082000DC00002080B483B000AF0346FB71FB798D
:10083000034A136000BF0C37BD465DF8047B704768
:10084000DC00002080B500AF114B124A1A60104B3B
:100850004FF4E1325A600E4B00229A600C4B00229A
:10086000DA600B4B00221A61094B0C225A61084BCB
:1008700000229A61064B0022DA61054801F02CFE45
:100880000346002B01D003F003F900BF80BD00BF79
:10089000E0000020001001400FB480B596B000AF1A
:1008A00007F164037B6007F108037A68396E184624
:1008B00003F0CAFB07F108031846FFF7A3FC034641
:1008C0009AB207F108010A23044801F052FE00BF62
:1008D0005837BD46BDE8804004B07047E0000020B6
:1008E00080B582B000AF7860054B01221A700122FA
:1008F0000449054801F0CFFE00BF0837BD4680BD62
:100900002401002074010020E000002080B582B0A6
:1009100000AF786001227968034801F0BCFE00BF97
:100920000837BD4680BD00BFE000002080B483B022
:1009300000AF78600B46FB70064B1A787B681A7024
:10094000054B00221A7000BF0C37BD465DF8047BD2
:10095000704700BF740100202401002080B400AF64
:10096000034B1B785BB21846BD465DF8047B7047AD
:100970002401002080B500AF0E4B1B680D4A43F4E4
:10098000007313600B4B1B680A4A43F480631360C7
:10099000084B1B68074A43F480731360032000F080
:1009A0002BF9002000F008F803F078F8002318462F
:1009B00080BD00BF003C024080B582B000AF7860CF
:1009C000124B1A68124B1B7819464FF47A73B3FB1B
:1009D000F1F3B2FBF3F3184600F043F90346002BA2
:1009E00001D001230EE07B680F2B0AD80022796822
:1009F0004FF0FF3000F00BF9064A7B6813600023CC
:100A000000E0012318460837BD4680BD10000020D5
:100A1000040000200000002080B400AF064B1B78CB
:100A20001A46064B1B681344044A136000BFBD46B8
:100A30005DF8047B704700BF0400002028010020FF
:100A400080B400AF034B1B681846BD465DF8047BBD
:100A5000704700BF2801002080B485B000AF7860E7
:100A60007B6803F00703FB600C4BDB68BB60BA6874
:100A70004FF6FF031340BB60FB681A02BB681343C9
:100A800043F0BF6343F40033BB60044ABB68D360E8
:100A900000BF1437BD465DF8047B704700ED00E0F1
:100AA00080B400AF044BDB681B0A03F00703184651
:100AB000BD465DF8047B704700ED00E080B483B074
:100AC00000AF0346FB7197F90730002B0BDBFB7976
:100AD00003F01F02074997F907305B09012000FA6C
:100AE00002F241F8232000BF0C37BD465DF8047BBD
:100AF000704700BF00E100E080B483B000AF034660
:100B00003960FB7197F90730002B0ADB3B68DAB2DA
:100B10000C4997F907301201D2B20B4483F8002335
:100B20000AE03B68DAB20849FB7903F00F03043BA3
:100B30001201D2B20B441A7600BF0C37BD465DF8E5
:100B4000047B704700E100E000ED00E080B489B074
:100B500000AFF860B9607A60FB6803F00703FB61DF
:100B6000FB69C3F10703042B28BF0423BB61FB69A6
:100B70000433062B02D9FB69033B00E000237B61B1
:100B80004FF0FF32BB6902FA03F3DA43BB681A4045
:100B90007B699A404FF0FF317B6901FA03F3D94337
:100BA0007B680B40134318462437BD465DF8047B31
:100BB0007047000080B582B000AF78607B68013B71
:100BC000B3F1807F01D301230FE00A4A7B68013B28
:100BD00053600F214FF0FF30FFF78EFF054B0022CF
:100BE0009A60044B07221A60002318460837BD4656
:100BF00080BD00BF10E000E080B582B000AF78603B
:100C00007868FFF729FF00BF0837BD4680BD80B573
:100C100086B000AF0346B9607A60FB7300237B6146
:100C2000FFF73EFF78617A68B9687869FFF78EFF51
:100C3000024697F90F3011461846FFF75DFF00BFD7
:100C40001837BD4680BD80B582B000AF0346FB714A
:100C500097F907301846FFF731FF00BF0837BD4648
:100C600080BD80B582B000AF78607868FFF7A2FFE2
:100C7000034618460837BD4680BD80B500AF00F07A
:100C800002F800BF80BD80B400AF00BFBD465DF874
:100C9000047B704780B582B000AF78607B68002B22
:100CA00001D101230EE07B685B79DBB2002B05D11B
:100CB0007B6800221A71786800F008F87B680122CE
:100CC0005A71002318460837BD4680BD80B483B0F2
:100CD00000AF786000BF0C37BD465DF8047B7047FD
:100CE00080B584B000AF78607B689B6DFB60FFF7D8
:100CF000A7FEB8607B6893F83530DBB2022B08D0D2
:100D00007B6880225A657B68002283F834200123A7
:100D100052E07B681B681A687B681B6822F0160229
:100D20001A607B681B685A697B681B6822F0800226
:100D30005A617B681B6C002B03D17B689B6C002B7A
:100D400007D07B681B681A687B681B6822F0080262
:100D50001A607B681B681A687B681B6822F00102B6
:100D60001A6013E0FFF76CFE0246BB68D31A052B2E
:100D70000CD97B6820225A657B68032283F83520D2
:100D80007B68002283F83420032315E07B681B680E
:100D90001B6803F00103002BE4D17B68DB6D3F226D
:100DA0009A40FB689A607B68012283F835207B6853
:100DB000002283F83420002318461037BD4680BD3A
:100DC00080B483B000AF78607B6893F83530DBB2D5
:100DD000022B04D07B6880225A6501230CE07B68DB
:100DE000052283F835207B681B681A687B681B68BE
:100DF00022F001021A60002318460C37BD465DF848
:100E0000047B704780B483B000AF0023FB710B4BB1
:100E10001B69002B0BDA094B094A5A60074B094A38
:100E20005A60064B1B69002B01DA0123FB71FB7929
:100E300018460C37BD465DF8047B7047003C024005
:100E400023016745AB89EFCD80B400AF054B1B692B
:100E5000044A43F00043136100231846BD465DF881
:100E6000047B7047003C024080B584B000AF7860DE
:100E70000023FB601A4B0022DA61FFF7E1FDF86006
:100E800010E07B68B3F1FF3F0CD07B68002B07D0EC
:100E9000FFF7D6FD0246FB68D31A7A689A4201D260
:100EA000032319E00F4BDB6803F48033002BE8D1F8
:100EB0000C4BDB6803F00103002B02D0094B01222D
:100EC000DA60084BDB6803F4F973002B03D000F001
:100ED0000BF8012300E0002318461037BD4680BD03
:100EE0002C010020003C024080B400AF2F4BDB6897
:100EF00003F01003002B08D02D4BDB6943F01003E7
:100F00002B4AD361294B1022DA60284BDB6803F0AF
:100F10002003002B08D0264BDB6943F00803244A4A
:100F2000D361224B2022DA60204BDB6803F04003C0
:100F3000002B08D01E4BDB6943F004031C4AD3612D
:100F40001A4B4022DA60194BDB6803F08003002B58
:100F500008D0174BDB6943F00203154AD361134BEA
:100F60008022DA60114BDB6803F48073002B09D018
:100F70000F4BDB6943F001030D4AD3610B4B4FF478
:100F80008072DA60094BDB6803F00203002B08D0A3
:100F9000074BDB6943F02003054AD361034B022270
:100FA000DA6000BFBD465DF8047B7047003C02403C
:100FB0002C01002080B584B000AF78603960012337
:100FC000FB730023BB60324B1B7E012B01D102233C
:100FD0005AE02F4B01221A764CF25030FFF744FFB3
:100FE0000346FB73FB7B002B4AD13B684FF0FF327B
:100FF0001A607B681B68012B17D17B681B69DAB20A
:101000007B685B681946104600F046F84CF2503099
:10101000FFF72AFF0346FB731E4B1B691D4A23F48F
:10102000004323F00403136128E07B689B68BB60E6
:101030001CE07B681B69DBB21946B86800F066F8F3
:101040004CF25030FFF710FF0346FB73114B1B6946
:10105000104A23F0FA031361FB7B002B03D03B689B
:10106000BA681A600AE0BB680133BB607B68DA6863
:101070007B689B681344BA689A42DAD300F094F80C
:10108000034B00221A76FB7B18461037BD4680BD05
:101090002C010020003C024080B483B000AF034626
:1010A0003960FB71184B1B69174A23F440731361B5
:1010B0003B68032B08D1144B1B69134A43F40043CC
:1010C00043F0040313610FE03B68012B06D10E4B84
:1010D0001B690D4A43F00403136105E00A4B1B69C9
:1010E000094A43F400431361074B1A69FB791B0259
:1010F0001343054A43F48033136100BF0C37BD46E8
:101100005DF8047B704700BF003C024080B485B0AE
:1011100000AF78600B46FB700023FB60FB78002B70
:1011200002D10023FB6010E0FB78012B03D14FF4C8
:101130008073FB6009E0FB78022B03D14FF400734E
:10114000FB6002E04FF44073FB607B680B2B02D91D
:101150007B6804337B60134B1B69124A23F4407392
:101160001361104B1A690F49FB6813430B610D4B58
:101170001B690C4A23F0F80313610A4B1A697B6858
:10118000DB001343074A43F002031361054B1B695D
:10119000044A43F48033136100BF1437BD465DF841
:1011A000047B7047003C024080B400AF204B1B68BA
:1011B00003F40073002B17D01D4B1B681C4A23F44B
:1011C000007313601A4B1B68194A43F400631360E1
:1011D000174B1B68164A23F400631360144B1B68FB
:1011E000134A43F400731360114B1B6803F48063CC
:1011F000002B17D00E4B1B680D4A23F4806313603D
:101200000B4B1B680A4A43F480531360084B1B685E
:10121000074A23F480531360054B1B68044A43F4C8
:101220008063136000BFBD465DF8047B704700BF5C
:10123000003C024080B489B000AF78603960002380
:101240007B6100233B610023BB610023FB6177E1ED
:101250000122FB6902FA03F37B613B681B687A6930
:1012600013403B613A697B699A4240F066813B6872
:101270005B6803F00303012B05D03B685B6803F058
:101280000303022B30D17B689B68BB61FB695B0069
:10129000032202FA03F3DB43BA691340BB613B68E4
:1012A000DA68FB695B0002FA03F3BA691343BB61B6
:1012B0007B68BA699A607B685B68BB610122FB69E5
:1012C00002FA03F3DB43BA691340BB613B685B6816
:1012D0001B0903F00102FB6902FA03F3BA69134325
:1012E000BB617B68BA695A603B685B6803F00303C3
:1012F000032B17D07B68DB68BB61FB695B000322B3
:1013000002FA03F3DB43BA691340BB613B689A6896
:10131000FB695B0002FA03F3BA691343BB617B68A4
:10132000BA69DA603B685B6803F00303022B23D1E0
:10133000FB69DA087B68083253F82230BB61FB692D
:1013400003F007039B000F2202FA03F3DB43BA69A1
:101350001340BB613B681A69FB6903F007039B00FC
:1013600002FA03F3BA691343BB61FB69DA087B68CD
:101370000832B96943F822107B681B68BB61FB69BE
:101380005B00032202FA03F3DB43BA691340BB613B
:101390003B685B6803F00302FB695B0002FA03F33E
:1013A000BA691343BB617B68BA691A603B685B68C2
:1013B00003F44033002B00F0C0800023FB60664B39
:1013C0005B6C654A43F480435364634B5B6C03F48A
:1013D0008043FB60FB68614AFB699B08023352F85B
:1013E0002330BB61FB6903F003039B000F2202FA69
:1013F00003F3DB43BA691340BB617B68584A9342ED
:1014000037D07B68574A934231D07B68564A934223
:101410002BD07B68554A934225D07B68544A93422F
:101420001FD07B68534A934219D07B68524A93423B
:1014300013D07B68514A93420DD07B68504A934247
:1014400007D07B684F4A934201D1092312E00A2357
:1014500010E008230EE007230CE006230AE0052332
:1014600008E0042306E0032304E0022302E0012352
:1014700000E00023FA6902F0030292009340BA6987
:101480001343BB613549FB699B080233BA6941F8D4
:1014900023203D4B9B68BB613B69DB43BA6913402A
:1014A000BB613B685B6803F48013002B03D0BA690F
:1014B0003B691343BB61344ABB699360324BDB68C1
:1014C000BB613B69DB43BA691340BB613B685B6846
:1014D00003F40013002B03D0BA693B691343BB61CB
:1014E000294ABB69D360284B5B68BB613B69DB431E
:1014F000BA691340BB613B685B6803F40033002B9F
:1015000003D0BA693B691343BB611F4ABB6953608F
:101510001D4B1B68BB613B69DB43BA691340BB6170
:101520003B685B6803F48033002B03D0BA693B69E6
:101530001343BB61144ABB691360FB690133FB6150
:10154000FB690F2B7FF684AE00BF00BF2437BD467A
:101550005DF8047B704700BF00380240003801404E
:10156000000002400004024000080240000C02405B
:10157000001002400014024000180240001C02400B
:101580000020024000240240003C014080B485B0AD
:1015900000AF78600B467B807B685B69FB607A8874
:1015A000FB6813401A04FB68D9437B880B401A433D
:1015B0007B689A6100BF1437BD465DF8047B7047B5
:1015C00080B582B000AF00237B6000233B60204BDE
:1015D0001B6C1F4A43F0805313641D4B1B6C03F0BC
:1015E00080533B603B681B4B01221A60FFF728FACF
:1015F000786009E0FFF724FA02467B68D31AB3F556
:101600007A7F01D903231FE0134B5B6803F4803317
:10161000B3F5803FEED1114B01221A60FFF710FAAB
:10162000786009E0FFF70CFA02467B68D31AB3F53D
:101630007A7F01D9032307E0074B5B6803F400338B
:10164000B3F5003FEED1002318460837BD4680BDF4
:101650000038024040000E420070004044000E423C
:1016600080B586B000AF78607B68002B01D1012384
:1016700067E27B681B6803F00103002B75D0884B81
:101680009B6803F00C03042B0CD0854B9B6803F084
:101690000C03082B12D1824B5B6803F48003B3F573
:1016A000800F0BD17E4B1B6803F40033002B5BD003
:1016B0007B685B68002B57D1012342E27B685B6843
:1016C000B3F5803F06D1764B1B68754A43F48033EF
:1016D00013601DE07B685B68B3F5A02F0CD1704BE5
:1016E0001B686F4A43F4802313606D4B1B686C4A80
:1016F00043F4803313600BE0694B1B68684A23F4A2
:1017000080331360664B1B68654A23F480231360A3
:101710007B685B68002B13D0FFF792F9386108E013
:10172000FFF78EF902463B69D31A642B01D90323D4
:1017300007E25B4B1B6803F40033002BF0D014E08E
:10174000FFF77EF9386108E0FFF77AF902463B6956
:10175000D31A642B01D90323F3E1514B1B6803F423
:101760000033002BF0D100E000BF7B681B6803F062
:101770000203002B63D04A4B9B6803F00C03002B41
:101780000BD0474B9B6803F00C03082B1CD1444B38
:101790005B6803F48003002B16D1414B1B6803F0F8
:1017A0000203002B05D07B68DB68012B01D00123ED
:1017B000C7E13B4B1B6823F0F8027B681B69DB0029
:1017C000374913430B603AE07B68DB68002B20D07D
:1017D000344B01221A60FFF733F9386108E0FFF754
:1017E0002FF902463B69D31A022B01D90323A8E142
:1017F0002B4B1B6803F00203002BF0D0284B1B6817
:1018000023F0F8027B681B69DB00254913430B605A
:1018100015E0244B00221A60FFF712F9386108E046
:10182000FFF70EF902463B69D31A022B01D90323B5
:1018300087E11B4B1B6803F00203002BF0D17B6890
:101840001B6803F00803002B36D07B685B69002B14
:1018500016D0154B01221A60FFF7F2F8386108E044
:10186000FFF7EEF802463B69D31A022B01D9032396
:1018700067E10B4B5B6F03F00203002BF0D01BE022
:10188000094B00221A60FFF7DBF838610EE0FFF722
:10189000D7F802463B69D31A022B07D9032350E13C
:1018A0000038024000004742800E4742884B5B6F81
:1018B00003F00203002BEAD17B681B6803F00403EA
:1018C000002B00F097800023FB75814B1B6C03F00D
:1018D0008053002B0FD10023BB607D4B1B6C7C4AD7
:1018E00043F0805313647A4B1B6C03F08053BB604E
:1018F000BB680123FB75774B1B6803F48073002BD7
:1019000018D1744B1B68734A43F480731360FFF75C
:1019100097F8386108E0FFF793F802463B69D31A5D
:10192000022B01D903230CE16A4B1B6803F480737B
:10193000002BF0D07B689B68012B06D1644B1B6F9A
:10194000634A43F0010313671CE07B689B68052B27
:101950000CD15F4B1B6F5E4A43F0040313675C4B73
:101960001B6F5B4A43F0010313670BE0584B1B6F7F
:10197000574A23F001031367554B1B6F544A23F05A
:10198000040313677B689B68002B15D0FFF758F89A
:1019900038610AE0FFF754F802463B69D31A41F276
:1019A0008832934201D90323CBE0494B1B6F03F0EC
:1019B0000203002BEED014E0FFF742F838610AE092
:1019C000FFF73EF802463B69D31A41F28832934250
:1019D00001D90323B5E03E4B1B6F03F00203002B3C
:1019E000EED1FB7D012B05D1394B1B6C384A23F01E
:1019F000805313647B689B69002B00F0A180344BFB
:101A00009B6803F00C03082B5CD07B689B69022B5E
:101A100041D1314B00221A60FFF712F8386108E01B
:101A2000FFF70EF802463B69D31A022B01D90323B4
:101A300087E0274B1B6803F00073002BF0D17B6815
:101A4000DA697B681B6A1A437B685B6A9B011A43ED
:101A50007B689B6A5B08013B1B041A437B68DB6A5B
:101A60001B061B4913434B601B4B01221A60FEF7F8
:101A7000E7FF386108E0FEF7E3FF02463B69D31A4F
:101A8000022B01D903235CE0114B1B6803F00073A8
:101A9000002BF0D054E0104B00221A60FEF7D0FF6C
:101AA000386108E0FEF7CCFF02463B69D31A022BEF
:101AB00001D9032345E0064B1B6803F00073002B9C
:101AC000F0D13DE07B689B69012B07D1012338E011
:101AD0000038024000700040600047421B4B5B68CA
:101AE000FB607B689B69012B28D0FB6803F48002B4
:101AF0007B68DB699A4221D1FB6803F03F027B6877
:101B00001B6A9A421AD1FA6847F6C07313407A6882
:101B1000526A9201934211D1FB6803F440327B6810
:101B20009B6A5B08013B1B049A4207D1FB6803F0E8
:101B300070627B68DB6A1B069A4201D0012300E0D9
:101B4000002318461837BD4680BD00BF003802404C
:101B500080B584B000AF786039607B68002B01D11C
:101B60000123CCE0684B1B6803F00F033A689A42EC
:101B70000CD9654B3A68D2B21A70634B1B6803F0FC
:101B80000F033A689A4201D00123B8E07B681B68D2
:101B900003F00203002B20D07B681B6803F00403D2
:101BA000002B05D0594B9B68584A43F4E05393608F
:101BB0007B681B6803F00803002B05D0534B9B6820
:101BC000524A43F460439360504B9B6823F0F00209
:101BD0007B689B684D4913438B607B681B6803F0EF
:101BE0000103002B44D07B685B68012B07D1474B76
:101BF0001B6803F40033002B19D101237FE07B68BD
:101C00005B68022B03D07B685B68032B07D13F4BDB
:101C10001B6803F00073002B09D101236FE03B4BDD
:101C20001B6803F00203002B01D1012367E0374B4F
:101C30009B6823F003027B685B68344913438B6025
:101C4000FEF7FEFEF8600AE0FEF7FAFE0246FB68C9
:101C5000D31A41F28832934201D903234FE02B4B30
:101C60009B6803F00C027B685B689B009A42EBD197
:101C7000254B1B6803F00F033A689A420CD2224BA3
:101C80003A68D2B21A70204B1B6803F00F033A680F
:101C90009A4201D0012332E07B681B6803F0040301
:101CA000002B08D0194B9B6823F4E0527B68DB685B
:101CB000164913438B607B681B6803F00803002BF5
:101CC00009D0124B9B6823F460427B681B69DB00E0
:101CD0000E4913438B6000F021F802460B4B9B68C2
:101CE0001B0903F00F030A49CB5C22FA03F3094AEC
:101CF0001360094B1B681846FEF75EFE002318466A
:101D00001037BD4680BD00BF003C02400038024095
:101D1000C851000810000020000000202DE9B04F3D
:101D200094B000AF00237B640023FB6400233B647A
:101D30000023BB64794B9B6803F00C03082B0DD088
:101D4000082B00F2E180002B02D0042B03D0DBE053
:101D5000734BBB64DBE0734BBB64D8E06F4B5B68D9
:101D600003F03F037B646D4B5B6803F48003002B3F
:101D700063D06A4B5B689B090022BB63FA63BB6B51
:101D8000C3F308033B6300237B63D7E90C4522467A
:101D90002B464FF000004FF00001590141EAD2619B
:101DA000500102460B462146511A3961294663EB20
:101DB00001037B614FF000024FF00003D7E904AB51
:101DC00059468B01514643EA916351468A01514677
:101DD000B2EB0108594663EB01094FF000024FF0E6
:101DE00000034FEAC90343EA58734FEAC80290461A
:101DF0009946234618EB0303BB602B4649EB0303CC
:101E0000FB604FF000024FF00003D7E9024529467E
:101E10004B02214643EAD15321464A021046194655
:101E20007B6C0022BB62FA62D7E90A23FEF748FA0C
:101E300002460B461346FB6458E0384B5B689B092F
:101E4000002218461146C0F308033B6200237B6260
:101E5000D7E9088942464B464FF000004FF0000199
:101E6000590141EAD261500102460B464146B2EBAC
:101E7000010A494663EB010B4FF000024FF00003EB
:101E80004FEA8B1343EA9A634FEA8A12B2EB0A04D1
:101E900063EB0B054FF000024FF00003EB0043EA49
:101EA0005473E20014461D464346E3183B604B461C
:101EB00045EB03037B604FF000024FF00003D7E9CE
:101EC000004529468B02214643EA915321468A0266
:101ED000104619467B6C0022BB61FA61D7E90623E4
:101EE000FEF7EEF902460B461346FB640B4B5B68AC
:101EF0001B0C03F0030301335B003B64FA6C3B6C87
:101F0000B2FBF3F3BB6402E0054BBB6400BFBB6CE8
:101F100018465037BD46BDE8B08F00BF00380240BC
:101F20000024F40000127A0080B400AF034B1B6859
:101F30001846BD465DF8047B704700BF10000020C6
:101F400080B500AFFFF7F0FF0246054B9B689B0A88
:101F500003F007030349CB5C22FA03F3184680BD64
:101F600000380240D851000880B500AFFFF7DCFF11
:101F70000246054B9B685B0B03F007030349CB5CF0
:101F800022FA03F3184680BD00380240D8510008F9
:101F900080B582B000AF78607B68002B01D101234F
:101FA00041E07B6893F83D30DBB2002B06D17B68C3
:101FB000002283F83C20786801F0AAFD7B680222A9
:101FC00083F83D207B681A687B6804331946104605
:101FD00000F0CEF97B68012283F846207B6801225D
:101FE00083F83E207B68012283F83F207B68012232
:101FF00083F840207B68012283F841207B6801221E
:1020000083F842207B68012283F843207B68012209
:1020100083F844207B68012283F845207B680122F5
:1020200083F83D20002318460837BD4680BD0000D8
:1020300080B485B000AF78607B6893F83D30DBB248
:10204000012B01D001234EE07B68022283F83D2062
:102050007B681B68DA687B681B6842F00102DA6003
:102060007B681B68234A934222D07B681B68B3F1CC
:10207000804F1DD07B681B681F4A934218D07B6835
:102080001B681E4A934213D07B681B681C4A93420C
:102090000ED07B681B681B4A934209D07B681B6883
:1020A000194A934204D07B681B68184A934211D1A5
:1020B0007B681B689B6803F00703FB60FB68062BCB
:1020C00010D07B681B681A687B681B6842F00102AD
:1020D0001A6007E07B681B681A687B681B6842F01F
:1020E00001021A60002318461437BD465DF8047BD0
:1020F000704700BF0000014000040040000800409D
:10210000000C004000040140004001400018004065
:1021100080B582B000AF78607B681B681B6903F0F4
:102120000203022B22D17B681B68DB6803F00203E9
:10213000022B1BD17B681B686FF002021A617B685F
:1021400001221A777B681B689B6903F00303002B4D
:1021500003D0786800F0EEF805E0786800F0E0F869
:10216000786800F0F1F87B6800221A777B681B68BA
:102170001B6903F00403042B22D17B681B68DB6816
:1021800003F00403042B1BD17B681B686FF004026F
:102190001A617B6802221A777B681B689B6903F4CB
:1021A0004073002B03D0786800F0C4F805E078682D
:1021B00000F0B6F8786800F0C7F87B6800221A775C
:1021C0007B681B681B6903F00803082B22D17B681E
:1021D0001B68DB6803F00803082B1BD17B681B68B6
:1021E0006FF008021A617B6804221A777B681B680B
:1021F000DB6903F00303002B03D0786800F09AF842
:1022000005E0786800F08CF8786800F09DF87B684D
:1022100000221A777B681B681B6903F01003102BE0
:1022200022D17B681B68DB6803F01003102B1BD1E5
:102230007B681B686FF010021A617B6808221A77AE
:102240007B681B68DB6903F44073002B03D078685C
:1022500000F070F805E0786800F062F8786800F047
:1022600073F87B6800221A777B681B681B6903F090
:102270000103012B0ED17B681B68DB6803F00103AF
:10228000012B07D17B681B686FF001021A61786827
:10229000FEF7AAFA7B681B681B6903F08003802B9A
:1022A0000ED17B681B68DB6803F08003802B07D1AD
:1022B0007B681B686FF080021A61786800F002F991
:1022C0007B681B681B6903F04003402B0ED17B68C1
:1022D0001B68DB6803F04003402B07D17B681B6859
:1022E0006FF040021A61786800F038F87B681B686C
:1022F0001B6903F02003202B0ED17B681B68DB6871
:1023000003F02003202B07D17B681B686FF02002AD
:102310001A61786800F0CCF800BF0837BD4680BD70
:1023200080B483B000AF786000BF0C37BD465DF865
:10233000047B704780B483B000AF786000BF0C3777
:10234000BD465DF8047B704780B483B000AF786011
:1023500000BF0C37BD465DF8047B704780B483B086
:1023600000AF786000BF0C37BD465DF8047B704756
:1023700080B485B000AF786039607B681B68FB6013
:102380007B68404A934213D07B68B3F1804F0FD0F3
:102390007B683D4A93420BD07B683C4A934207D00E
:1023A0007B683B4A934203D07B683A4A934208D108
:1023B000FB6823F07003FB603B685B68FA681343BB
:1023C000FB607B682F4A93422BD07B68B3F1804F30
:1023D00027D07B682C4A934223D07B682B4A9342B8
:1023E0001FD07B682A4A93421BD07B68294A9342BC
:1023F00017D07B68284A934213D07B68274A9342C0
:102400000FD07B68264A93420BD07B68254A9342C3
:1024100007D07B68244A934203D07B68234A9342C7
:1024200008D1FB6823F44073FB603B68DB68FA6803
:102430001343FB60FB6823F080023B685B69134336
:10244000FB607B68FA681A603B689A687B68DA62AE
:102450003B681A687B689A627B680A4A934203D099
:102460007B680C4A934203D13B681A697B681A6304
:102470007B6801225A6100BF1437BD465DF8047BBA
:10248000704700BF00000140000400400008004009
:10249000000C0040000401400040014000440140A5
:1024A0000048014000180040001C0040002000408F
:1024B00080B483B000AF786000BF0C37BD465DF8D4
:1024C000047B704780B483B000AF786000BF0C37E6
:1024D000BD465DF8047B704780B582B000AF786080
:1024E0007B68002B01D101233FE07B6893F83D30EE
:1024F000DBB2002B06D17B68002283F83C20786891
:1025000001F026FB7B68242283F83D207B681B6852
:10251000DA687B681B6822F40052DA60786800F0A1
:10252000DFFD7B681B681A697B681B6822F4904298
:102530001A617B681B685A697B681B6822F02A0253
:102540005A617B681B68DA687B681B6842F400523A
:10255000DA607B6800221A647B68202283F83D20C1
:102560007B68202283F83E20002318460837BD46AA
:1025700080BD80B58AB002AFF860B9603B60134699
:10258000FB8000237B61FB6893F83D30DBB2202B9E
:102590007CD1BB68002B02D0FB88002B01D101232A
:1025A00075E0FB6893F83C30012B01D102236EE00B
:1025B000FB68012283F83C20FB6800221A64FB6858
:1025C000212283F83D20FEF73BFA7861FB68FA8808
:1025D0009A84FB68FA88DA84FB689B68B3F5805FAD
:1025E00008D1FB681B69002B04D10023FB61BB6889
:1025F000BB6103E0BB68FB610023BB61FB68002299
:1026000083F83C202AE03B6800937B69002280210C
:10261000F86800F01FFB0346002B01D0032336E0CF
:10262000FB69002B0BD1BB691B881A46FB681B6832
:10263000C2F308025A60BB690233BB6107E0FB6961
:102640001A78FB681B685A60FB690133FB61FB6801
:10265000DB8C9BB2013B9AB2FB68DA84FB68DB8CB3
:102660009BB2002BCFD13B6800937B6900224021B5
:10267000F86800F0EFFA0346002B01D0032306E0D0
:10268000FB68202283F83D20002300E00223184647
:102690002037BD4680BD80B584B000AFF860B9601A
:1026A0001346FB80FB6893F83E30DBB2202B1DD134
:1026B000BB68002B02D0FB88002B01D1012316E060
:1026C000FB6893F83C30012B01D102230FE0FB683B
:1026D000012283F83C20FB6800221A63FB881A461B
:1026E000B968F86800F024FB034600E002231846AE
:1026F0001037BD4680BD000080B5BAB000AF78602D
:102700007B681B681B68C7F8E4307B681B68DB6864
:10271000C7F8E0307B681B685B69C7F8DC300023D2
:10272000C7F8D8300023C7F8D430D7F8E43003F026
:102730000F03C7F8D830D7F8D830002B0FD1D7F80F
:10274000E43003F02003002B09D0D7F8E03003F089
:102750002003002B03D0786800F007FC56E2D7F87E
:10276000D830002B00F0DE80D7F8DC3003F0010316
:10277000002B06D1D7F8E03003F49073002B00F063
:10278000D180D7F8E43003F00103002B0BD0D7F849
:10279000E03003F48073002B05D07B681B6C43F0A2
:1027A00001027B681A64D7F8E43003F00403002BBD
:1027B0000BD0D7F8DC3003F00103002B05D07B6889
:1027C0001B6C43F002027B681A64D7F8E43003F014
:1027D0000203002B0BD0D7F8DC3003F00103002BF1
:1027E00005D07B681B6C43F004027B681A64D7F841
:1027F000E43003F00803002B11D0D7F8E03003F0E9
:102800002003002B05D1D7F8DC3003F00103002BA7
:1028100005D07B681B6C43F008027B681A647B68F8
:102820001B6C002B00F0ED81D7F8E43003F020039F
:10283000002B08D0D7F8E03003F02003002B02D0A3
:10284000786800F092FB7B681B685B6903F04003CB
:10285000402B0CBF01230023DBB2C7F8D4307B68C8
:102860001B6C03F00803002B03D1D7F8D430002BE6
:102870004FD0786800F09AFA7B681B685B6903F0B8
:102880004003402B41D17B681B681433C7F89C3050
:10289000D7F89C3053E8003FC7F89830D7F8983005
:1028A00023F04003C7F8D0307B681B681433D7F897
:1028B000D020C7F8A820C7F8A430D7F8A410D7F8BC
:1028C000A82041E80023C7F8A030D7F8A030002B9B
:1028D000D9D17B689B6B002B13D07B689B6B7D4AA7
:1028E0001A657B689B6B1846FEF76AFA0346002B55
:1028F00016D07B689B6B1B6D7A68926B104698476D
:102900000EE0786800F090F90AE0786800F08CF941
:1029100006E0786800F088F97B6800221A6470E1AC
:1029200000BF6EE17B681B6B012B40F04A81D7F83A
:10293000E43003F01003002B00F04381D7F8E030BF
:1029400003F01003002B00F03C810023BB607B6888
:102950001B681B68BB607B681B685B68BB60BB68EF
:102960007B681B685B6903F04003402B40F0B48038
:102970007B689B6B1B685B68A7F8BE30B7F8BE30FE
:10298000002B00F040817B689B8DB7F8BE209A42F7
:1029900080F039817B68B7F8BE20DA857B689B6B55
:1029A000DB69B3F5807F00F088807B681B680C339F
:1029B000C7F88830D7F8883053E8003FC7F884302C
:1029C000D7F8843023F48073C7F8B8307B681B686D
:1029D0000C33D7F8B820C7F89420C7F89030D7F850
:1029E0009010D7F8942041E80023C7F88C30D7F82E
:1029F0008C30002BD9D17B681B6814337B677B6FCD
:102A000053E8003F3B673B6F23F00103C7F8B43046
:102A10007B681B681433D7F8B420C7F88020FB67A5
:102A2000F96FD7F8802041E80023BB67BB6F002B0C
:102A3000E1D17B681B6814333B663B6E53E8003F73
:102A4000FB65FB6D23F04003C7F8B0307B681B6863
:102A50001433D7F8B020FA66BB66B96EFA6E41E857
:102A600000237B667B6E002BE3D17B68202283F8FA
:102A70003E207B6800221A637B681B680C33FB6472
:102A8000FB6C53E8003FBB64BB6C23F01003C7F83A
:102A9000AC307B681B680C33D7F8AC20BA657B651B
:102AA000796DBA6D41E800233B653B6D002BE3D1A6
:102AB0007B689B6B1846FEF713F97B689A8D7B68E1
:102AC000DB8D9BB2D31A9BB21946786800F0B6F83A
:102AD00099E000BF732E00087B689A8D7B68DB8DC0
:102AE0009BB2D31AA7F8CE307B68DB8D9BB2002B4C
:102AF00000F08B80B7F8CE30002B00F086807B682A
:102B00001B680C33BB63BB6B53E8003F7B637B6B81
:102B100023F49073C7F8C8307B681B680C33D7F870
:102B2000C8207A643B64396C7A6C41E80023FB630B
:102B3000FB6B002BE3D17B681B6814337B627B6AE1
:102B400053E8003F3B623B6A23F00103C7F8C430FF
:102B50007B681B681433D7F8C4203A63FB62F96AB8
:102B60003A6B41E80023BB62BB6A002BE3D17B6870
:102B7000202283F83E207B6800221A637B681B6852
:102B80000C333B613B6953E8003FFB60FB6823F07B
:102B90001003C7F8C0307B681B680C33D7F8C0201F
:102BA000FA61BB61B969FA6941E800237B617B691D
:102BB000002BE3D1B7F8CE301946786800F03EF824
:102BC00023E0D7F8E43003F08003002B09D0D7F8D6
:102BD000E03003F08003002B03D0786800F05DF94B
:102BE00014E0D7F8E43003F04003002B0ED0D7F800
:102BF000E03003F04003002B08D0786800F09DF926
:102C000004E000BF02E000BF00E000BFE837BD46BF
:102C100080BD00BF80B483B000AF786000BF0C37C8
:102C2000BD465DF8047B704780B483B000AF786028
:102C300000BF0C37BD465DF8047B704780B483B09D
:102C400000AF78600B467B8000BF0C37BD465DF857
:102C5000047B704780B590B000AFF860B9603B600E
:102C60001346FB7150E0BB6CB3F1FF3F4CD0BB6C23
:102C7000002B07D0FDF7E4FE02463B68D31ABA6C7E
:102C80009A4241D2FB681B680C33BB62BB6A53E8B3
:102C9000003F7B627B6A23F4D073FB63FB681B6895
:102CA0000C33FA6B7A633B63396B7A6B41E8002330
:102CB000FB62FB6A002BE5D1FB681B6814337B6168
:102CC0007B6953E8003F3B613B6923F00103BB6331
:102CD000FB681B681433BA6B3A62FB61F9693A6AA4
:102CE00041E80023BB61BB69002BE5D1FB682022D2
:102CF00083F83D20FB68202283F83E20FB680022F9
:102D000083F83C2003230FE0FB681B681A68BB684C
:102D10001340BA689A420CBF01230023DBB21A4663
:102D2000FB799A429FD0002318464037BD4680BDAC
:102D300080B485B000AFF860B9601346FB80FB68D3
:102D4000BA689A62FB68FA889A85FB68FA88DA851D
:102D5000FB6800221A64FB68222283F83E20FB688D
:102D6000002283F83C20FB681B69002B07D0FB681E
:102D70001B68DA68FB681B6842F48072DA60FB68E3
:102D80001B685A69FB681B6842F001025A61FB68C4
:102D90001B68DA68FB681B6842F02002DA600023D7
:102DA00018461437BD465DF8047B704780B495B073
:102DB00000AF78607B681B680C337B637B6B53E8E8
:102DC000003F3B633B6B23F49073FB647B681B68A1
:102DD0000C33FA6C3A64FB63F96B3A6C41E80023FC
:102DE000BB63BB6B002BE5D17B681B6814333B6274
:102DF0003B6A53E8003FFB61FB6923F00103BB64BE
:102E00007B681B681433BA6CFA62BB62B96AFA6AEF
:102E100041E800237B627B6A002BE5D17B681B6B5A
:102E2000012B19D17B681B680C33FB60FB6853E8EE
:102E3000003FBB60BB6823F010037B647B681B68AA
:102E40000C337A6CBA617B617969BA6941E8002315
:102E50003B613B69002BE5D17B68202283F83E2053
:102E60007B6800221A6300BF5437BD465DF8047BBF
:102E7000704780B584B000AF78607B689B6BFB6067
:102E8000FB680022DA85FB680022DA84F868FFF725
:102E9000CBFE00BF1037BD4680BD80B485B000AF0B
:102EA00078607B6893F83D30DBB2212B3ED17B68A4
:102EB0009B68B3F5805F14D17B681B69002B10D130
:102EC0007B681B6AFB60FB681B881A467B681B6873
:102ED000C2F308025A607B681B6A9A1C7B681A62FC
:102EE00008E07B681B6A591C7A6811621A787B6853
:102EF0001B685A607B68DB8C9BB2013B9BB27A6893
:102F00001946D184002B0FD17B681B68DA687B6877
:102F10001B6822F08002DA607B681B68DA687B68D5
:102F20001B6842F04002DA60002300E002231846EA
:102F30001437BD465DF8047B704780B582B000AFA2
:102F400078607B681B68DA687B681B6822F0400247
:102F5000DA607B68202283F83D207868FFF75AFE0C
:102F6000002318460837BD4680BD80B58CB000AF41
:102F700078607B6893F83E30DBB2222B40F0AB8068
:102F80007B689B68B3F5805F17D17B681B69002B5A
:102F900013D10023FB627B689B6ABB627B681B6862
:102FA0005B689BB2C3F308039AB2BB6A1A807B6862
:102FB0009B6A9A1C7B689A6226E07B689B6AFB622C
:102FC0000023BB627B689B68B3F5805F07D07B689A
:102FD0009B68002B0AD17B681B69002B06D17B689C
:102FE0001B685B68DAB2FB6A1A7008E07B681B68D2
:102FF0005B68DBB203F07F03DAB2FB6A1A707B68AE
:103000009B6A5A1C7B689A627B68DB8D9BB2013B92
:103010009BB27A681946D185002B5AD17B681B6810
:10302000DA687B681B6822F02002DA607B681B6824
:10303000DA687B681B6822F48072DA607B681B6840
:103040005A697B681B6822F001025A617B68202262
:1030500083F83E207B681B6B012B35D17B680022F7
:103060001A637B681B680C337B617B6953E8003F04
:103070003B613B6923F010037B627B681B680C3368
:103080007A6A3A62FB61F9693A6A41E80023BB61F6
:10309000BB69002BE5D17B681B681B6803F010033C
:1030A000102B0AD10023FB607B681B681B68FB6048
:1030B0007B681B685B68FB60FB687B689B8D1946BF
:1030C0007868FFF7BBFD02E07868FDF709FC002394
:1030D00002E0002300E0022318463037BD4680BDE1
:1030E0002DE9B04FC0B000AFC7F8F400D7F8F43006
:1030F0001B681B6923F44050D7F8F430D968D7F81F
:10310000F4301A6840EA01031361D7F8F4309A6882
:10311000D7F8F4301B691A43D7F8F4305B691A43C7
:10312000D7F8F430DB691343C7F8F830D7F8F43038
:103130001B68DB6823F4164121F00C01D7F8F4304A
:103140001A68D7F8F8300B43D360D7F8F4301B680F
:103150005B6923F44070D7F8F4309969D7F8F430FC
:103160001A6840EA01035361D7F8F4301A688F4BAC
:103170009A4205D0D7F8F4301A688D4B9A4204D1A0
:10318000FEF7F2FEC7F8FC0003E0FEF7D9FEC7F831
:10319000FC00D7F8F430DB69B3F5004F40F00C8148
:1031A000D7F8FC300022C7F8E830C7F8EC20D7E9A0
:1031B0003A4522462B469118B9655B41FB65D7E934
:1031C0001623214612EB0108294643EB01094FF073
:1031D00000024FF000034FEAC90343EA58734FEA75
:1031E000C80290469946234618EB0303C7F8E0301F
:1031F0002B4649EB0303C7F8E430D7F8F4305B689B
:103200000022C7F8D830C7F8DC20D7E936120B46C1
:10321000DB183B65134642EB03037B65D7E91423B8
:10322000D7E93801FDF74CF802460B46614BA3FB8A
:1032300002235B091C01D7F8FC300022C7F8D0300C
:10324000C7F8D420D7E9348942464B469118B9646F
:103250005B41FB64D7E91223414612EB010A494660
:1032600043EB010B4FF000024FF000034FEACB039A
:1032700043EA5A734FEACA0292469B4643461AEB08
:103280000303C7F8C8304B464BEB0303C7F8CC30F9
:10329000D7F8F4305B680022C7F8C030C7F8C42004
:1032A000D7E930120B46DB183B64134642EB0303AD
:1032B0007B64D7E91023D7E93201FDF701F8024614
:1032C0000B4611463B4BA3FB01235B09642202FB27
:1032D00003F3CB1ADB0003F13202364BA3FB0223CC
:1032E0005B095B0003F4F8731C44D7F8FC30002240
:1032F000C7F8B830C7F8BC20D7E92E8942464B46FC
:103300009118B9635B41FB63D7E90E23414651181D
:10331000396349464B417B634FF000024FF0000395
:10332000D7E90CAB5946CB00514643EA517351469D
:10333000CA0010461946034642469B18C7F8B030EB
:103340004B460A4642EB0303C7F8B430D7F8F430D3
:103350005B680022C7F8A830C7F8AC20D7E92A126A
:103360000B46DB18BB62134642EB0303FB62D7E953
:103370000A23D7E92C01FCF7A3FF02460B460D4BAD
:10338000A3FB02135B09642101FB03F3D31ADB00E7
:103390003233084AA2FB03235B0903F00702D7F884
:1033A000F4301B6822449A6005E100BF0010014020
:1033B000001401401F85EB51D7F8FC300022C7F8FC
:1033C000A030C7F8A420D7E9288942464B46911877
:1033D00039625B417B62D7E908234146541849466C
:1033E00043EB01054FF000024FF00003EB0043EA0E
:1033F0005473E20014461D464346E318C7F898305C
:103400004B4645EB0303C7F89C30D7F8F4305B68B4
:103410000022C7F89030C7F894204FF000024FF018
:103420000003D7E9244529468B00214643EA9173DE
:1034300021468A00D7E92601FCF742FF02460B46E7
:10344000604BA3FB02235B091C01D7F8FC30002270
:10345000C7F88830C7F88C20D7E9228942464B4606
:103460009118B9615B41FB61D7E9062341465118C8
:10347000396149464B417B614FF000024FF0000338
:10348000D7E904AB5946CB00514643EA5173514644
:10349000CA0010461946034642469B18C7F88030BA
:1034A0004B460A4642EB0303C7F88430D7F8F430A2
:1034B0005B680022BB67FA674FF000024FF0000321
:1034C000D7E91E8949468B00414643EA917341463C
:1034D0008A00D7E92001FCF7F3FE02460B46394B80
:1034E000A3FB02135B09642101FB03F3D31A1B0145
:1034F0003233344AA2FB03235B0903F0F0031C447C
:10350000D7F8FC3000223B677A67D7E91C8942462E
:103510004B469118B9605B41FB60D7E902234146F5
:103520005118396049464B417B604FF000024FF023
:103530000003D7E900AB5946CB00514643EA51732B
:103540005146CA0010461946034642469B18BB66C0
:103550004B460A4642EB0303FB66D7F8F4305B6840
:1035600000223B667A664FF000024FF00003D7E975
:10357000188949468B00414643EA917341468A00C7
:10358000D7E91A01FCF79CFE02460B460D4BA3FB44
:1035900002135B09642101FB03F3D31A1B013233CD
:1035A000084AA2FB03235B0903F00F02D7F8F430AB
:1035B0001B6822449A6000BF07F58077BD46BDE8CE
:1035C000B08F00BF1F85EB5180B500AF00F07AF8D7
:1035D0000346342B49D1FDF7C1F90346002B45D0F2
:1035E00001212348FDF7A2F9224B1B780D2B03D1B3
:1035F0001F4B1A781F4B1A701E4B1B78792B25D046
:10360000792B29DC782B17D0782B25DC312B02D0B5
:10361000322B07D020E00121052000F0DFFB00F075
:1036200025FC23E01448FDF737F90121052000F0BF
:10363000D5FB00F01BFC19E00E4B79221A700F4BE2
:1036400035221A700E48FDF727F90FE000F01CF83C
:10365000084B0D221A7009E00A48FDF71DF900F029
:1036600013F8044B0D221A7000E000BF80BD00BFAC
:103670004C010020050000205850000806000020E2
:103680007C5000088850000880B500AF0848FDF75E
:1036900003F90848FDF700F90748FDF7FDF807486A
:1036A000FDF7FAF80648FDF7F7F800BF80BD00BF48
:1036B0009C500008C8500008E4500008FC50000866
:1036C0000C51000880B500AFFDF748F90346002B08
:1036D00000F0A080524B1B78313B042B00F2968007
:1036E00001A252F823F000BFFD3600085937000848
:1036F0000D380008E9370008F13700080121494872
:10370000FDF714F9474B1B780D2B15D0454B1B7853
:103710000A2B11D0434B1B7819464348FDF7BCF8E0
:10372000424B1B785A1CD1B2404A11701A463D4B8D
:1037300019783F4B99546EE03C4B1B781A463C4B32
:1037400000219954364B32221A70384B00221A70DD
:103750003848FDF7A1F85EE001213248FDF7E6F8B0
:10376000304B1B780D2B18D02E4B1B780A2B14D006
:103770002E4B1B785A1CD1B22C4A11701A46294B79
:1037800019782D4B9954274B2A221A70254B1B78F8
:1037900019462548FDF780F825E0244B1B781A468A
:1037A000254B00219954254B1B6821491846FCF7ED
:1037B0001FFD0346002B0FD1214B1B681E491846E5
:1037C000FCF716FD0346002B06D1154B34221A7068
:1037D0001C48FDF761F806E01B48FDF75DF8104B4B
:1037E00035221A7017E016E00D4B34221A7012E0E1
:1037F00001210C48FDF79AF81448FDF74DF8084BE5
:1038000031221A70094B00221A7004E0044B352251
:103810001A7000E000BF024B1B78184680BD00BF45
:10382000060000204C010020345100084F01002008
:1038300050010020385100085C01002008000020E1
:103840000C0000204C510008645100088851000809
:103850000D48854600F0B0FA0C480D490D4A00238A
:1038600002E0D458C4500433C4188C42F9D30A4A35
:103870000A4C002301E013600432A242FBD300F0A3
:103880002BFB00F00FF8FEE70000032000000020F3
:10389000780000208852000878000020980100205D
:1038A000FEE7000080B500AFFDF764F800F080F897
:1038B0003448FCF773FFFCF7C5FF00F0F3FA4FF450
:1038C00080413148FCF77EFE4FF400512E48FCF752
:1038D00079FEFCF77FFF2D48FDF718F82C4B2D4A99
:1038E0001A602B4B1B681B78FF2B02D100F0BEFA2D
:1038F00044E02948FCF7D0FFFCF788FF0346002B83
:10390000FAD0FCF783FF0246244B1B681344234A7A
:103910001360FCF77BFF0246214B1B681344204ACF
:103920001360FCF773FF02461E4B1B6813441D4ACD
:1039300013600020FCF776FF1B4B1B78012B07D18F
:10394000194B00221A704FF400510F48FCF716FF74
:10395000164B1B78012B07D1144B00221A704FF421
:1039600080410948FCF70AFF0E4B1B68092BC3D99D
:103970000C4B00221A60FFF727FEBDE70023184614
:1039800080BD00BF001000400018024074010020FC
:1039900078010020FCFF0308945100086801002012
:1039A0006C010020700100204D0100204E0100201C
:1039B00080B594B000AF07F12003302200211846F3
:1039C00000F0AEFA07F10C0300221A605A609A6008
:1039D000DA601A610023BB602B4B1B6C2A4A43F050
:1039E00080531364284B1B6C03F08053BB60BB688F
:1039F00000237B60254B1B68244A43F4404313603B
:103A0000224B1B6803F440437B607B6801233B62CD
:103A10004FF480337B620223BB634FF48003FB636C
:103A200004233B6450237B640223BB640723FB64B1
:103A300007F120031846FDF713FE0346002B01D0C3
:103A400000F026F8FDF7BCFD0346002B01D000F086
:103A50001FF80F23FB6002233B6100237B614FF4BF
:103A6000A053BB614FF48053FB6107F10C030521A8
:103A70001846FEF76DF80346002B01D000F008F859
:103A800000BF5037BD4680BD003802400070004086
:103A900080B400AF72B600BFFEE7000080B582B010
:103AA00000AF00237B60194B5B6C184A43F48043E2
:103AB0005364164B5B6C03F480437B607B6800238C
:103AC0003B60124B1B6C114A43F0805313640F4B45
:103AD0001B6C03F080533B603B680720FDF78CF8BC
:103AE000002200216FF00B00FDF791F80022002169
:103AF0006FF00A00FDF78BF8002200216FF009003B
:103B0000FDF785F800BF0837BD4680BD003802408C
:103B100080B584B000AF78600023FB600B4B1B6C5A
:103B20000A4A43F010031364084B1B6C03F01003A4
:103B3000FB60FB683620FDF786F800220F21362057
:103B4000FDF765F800BF1037BD4680BD0038024064
:103B500080B58AB000AF786007F1140300221A60C4
:103B60005A609A60DA601A617B681B681D4A93424A
:103B700034D100233B611C4B5B6C1B4A43F01003A8
:103B80005364194B5B6C03F010033B613B690023EA
:103B9000FB60154B1B6B144A43F001031363124B7C
:103BA0001B6B03F00103FB60FB684FF4C0637B6198
:103BB0000223BB610023FB6103233B6207237B627B
:103BC00007F1140319460948FDF734FB00220021D0
:103BD0002520FDF71CF82520FDF735F800BF283714
:103BE000BD4680BD00100140003802400000024088
:103BF00080B400AFFEE780B400AFFEE780B400AF52
:103C0000FEE780B400AFFEE780B400AFFEE780B40B
:103C100000AF00BFBD465DF8047B704780B400AFC5
:103C200000BFBD465DF8047B704780B400AF00BFA5
:103C3000BD465DF8047B704780B500AFFCF7ECFE35
:103C4000FDF71BF800BF80BD80B500AF0248FEF74E
:103C50005FFA00BF80BD00BF9400002080B500AFB8
:103C60000248FEF749FD00BF80BD00BFE000002014
:103C700080B586B000AFF860B9607A6000237B61E0
:103C80000AE0AFF300800146BB685A1CBA60CAB2B2
:103C90001A707B6901337B617A697B689A42F0DB39
:103CA0007B6818461837BD4680BD80B586B000AF2A
:103CB000F860B9607A6000237B6109E0BB685A1C38
:103CC000BA601B781846AFF300807B6901337B61D3
:103CD0007A697B689A42F1DB7B6818461837BD46E3
:103CE00080BD80B483B000AF78604FF0FF331846DA
:103CF0000C37BD465DF8047B704780B483B000AFDD
:103D0000786039603B684FF400525A6000231846CF
:103D10000C37BD465DF8047B704780B483B000AFBC
:103D20007860012318460C37BD465DF8047B704768
:103D300080B485B000AFF860B9607A60002318469F
:103D40001437BD465DF8047B7047000080B586B02F
:103D500000AF7860144A154BD31A7B617B693B61D5
:103D6000134B1B68002B02D1114B124A1A60104BE7
:103D70001A687B6813443A699A4207D200F0A6F8A1
:103D800003460C221A604FF0FF3309E0084B1B6812
:103D9000FB60074B1A687B681344054A1360FB6895
:103DA00018461837BD4680BD0000032000040000FF
:103DB0007C0100209801002080B400AF064BD3F8AE
:103DC0008830054A43F47003C2F8883000BFBD460E
:103DD0005DF8047B704700BF00ED00E080B58AB05D
:103DE00000AF03460A46FB711346BB71BB790C2B2F
:103DF00001D9042335E0FB79FF2B02D0FB790B2B93
:103E00002ED8FB79FF2B02D101233B6112E0FB7915
:103E1000C3F10C0387F82730BA7997F827309A4214
:103E200002D997F82730BB7100233B61FB79BB6156
:103E3000BB79FB6101237B61FCF7E4FF02233B625A
:103E400007F10C0207F1100311461846FDF7B2F80E
:103E5000034687F82630FCF7F7FF97F8263000E096
:103E6000042318462837BD4680BD000080B584B0C5
:103E700000AF0A4B1B68FB60FB683B603B6883F349
:103E8000088800BF064B1B68BB60BB687B607B6813
:103E9000984700BF1037BD4680BD00BF0000040832
:103EA0000400040880B500AF064B074A1A600548B5
:103EB000FCF7F0FE0346002B01D0FFF7E9FD00BF41
:103EC00080BD00BF8001002000300240014B186817
:103ED000704700BF1400002070B50D4D0D4C641BE1
:103EE000A4100026A64209D10B4D0C4C01F08EF80F
:103EF000641BA4100026A64205D170BD55F8043BF2
:103F000098470136EEE755F8043B98470136F2E74B
:103F10008052000880520008805200088452000835
:103F200002440346934200D1704703F8011BF9E7AE
:103F300070B50E46054618B183690BB900F068FAF2
:103F4000AB69AC6813B9284600F062FA2C4B9C426E
:103F500020D16C68636EDB0705D4A389980502D471
:103F6000A06D00F0F3FAA38919071DD52369DBB111
:103F7000013EA36816F8011F013BA36039BB002B6B
:103F800038DA22460A21284600F068F8013011D0BC
:103F90000A2511E01B4B9C4201D1AC68DAE71A4BB1
:103FA0009C4208BFEC68D5E72146284600F0A8F8F7
:103FB0000028DDD04FF0FF35636EDA0705D4A38902
:103FC0009B0502D4A06D00F0C2FA284670BD002BFC
:103FD00004DAA2699A4206DC0A2904D023685A1C32
:103FE00022601970C5E72246284600F037F80130F4
:103FF000BFD1DFE723680A255A1C22601D70DBE76A
:104000000452000824520008E4510008024B014603
:104010001868FFF78DBF00BF1400002000B59BB0EB
:10402000009104916FF000410591029105490391BF
:10403000694600F02FFC009B00221A701BB05DF84F
:1040400004FB00BF0802FFFF13460A460146024870
:104050000068FFF7E3BF00BF14000020F8B50E466C
:104060001446054618B183690BB900F0D1F9214B0C
:104070009C422BD16C68A369A360A3891A072FD532
:1040800023696BB323692068C01A6369F6B283425F
:10409000374604DC2146284600F026F930BBA368E9
:1040A000013BA36023685A1C22601E7063690130C3
:1040B000834204D0A389DB0706D50A2E04D121460A
:1040C000284600F011F988B93846F8BD0A4B9C42E1
:1040D00001D1AC68CFE7094B9C4208BFEC68CAE746
:1040E0002146284600F00CF80028CBD04FF0FF37CF
:1040F000EAE700BF0452000824520008E451000817
:10410000324B70B51D6806460C4625B1AB6913B934
:10411000284600F07DF92E4B9C420FD16C68A38994
:10412000B4F90C2019072CD4DD0611D4092333600F
:1041300042F04003A3814FF0FF303EE0254B9C420C
:1041400001D1AC68EBE7244B9C4208BFEC68E6E782
:10415000580712D5616B41B104F14403994202D072
:10416000304600F05BFA00236363A38923F0240345
:10417000A3810023636023692360A38943F00803BC
:10418000A38123694BB9A38903F42073B3F5007F9E
:1041900003D02146304600F001FAA089B4F90C2082
:1041A00010F001030AD00023A36063695B42A3619E
:1041B000236943B910F08000BAD170BD810758BFA0
:1041C0006369A360F4E70020F7E700BF1400002054
:1041D0000452000824520008E45100088A892DE99D
:1041E000F041054610070C4658D44B68002B05DCFF
:1041F0000B6C002B02DC0020BDE8F081E66A002E8B
:10420000F9D0002312F480522F682B6032D0606DF9
:10421000A3895A0705D56368C01A636B0BB1236C79
:10422000C01A00230246E66A216A2846B047431CAA
:10423000A38906D129681D292CD82A4ACA40D60745
:1042400028D500226260D9042269226004D5421C6C
:1042500001D12B6803B96065616B2F600029CAD05A
:1042600004F14403994202D0284600F0D7F9002017
:104270006063C1E7216A01232846B047411CC7D1CA
:104280002B68002BC4D01D2B01D0162B01D12F6021
:10429000B1E7A38943F04003A381ADE70F69002F85
:1042A000A9D093070E6808BF4B690F6018BF0023A1
:1042B000A6EB07088B60B8F1000F9CDD216AA66AA7
:1042C00043463A462846B047002806DCA38943F017
:1042D0004003A3814FF0FF308EE70744A8EB0008AE
:1042E000E9E700BF0100402038B50B6905460C46E0
:1042F00013B90025284638BD18B183690BB900F001
:1043000087F8144B9C421BD16C68B4F90C30002B1D
:10431000EFD0626ED00704D4990502D4A06D00F0EE
:1043200015F928462146FFF759FF636EDA0705465F
:10433000E0D4A3899B05DDD4A06D00F008F9D9E78E
:10434000054B9C4201D1AC68DFE7044B9C4208BF9F
:10435000EC68DAE70452000824520008E45100082F
:10436000002310B50446C0E90033C0E9043383607C
:1043700081814366C2818361194608225C30FFF760
:10438000CFFD054B6362054BA362054BE362054B12
:104390002462236310BD00BFDD4D0008FF4D0008FF
:1043A000374E00085B4E0008014900F0AFB800BF6F
:1043B000E942000870B568224D1E55430E4605F1CE
:1043C000740100F097F9044640B10021C0E90016DD
:1043D0000C30A06005F16802FFF7A2FD204670BD19
:1043E000014800F0B3B800BF89010020014800F087
:1043F000AEB800BF89010020014800F0A7B800BF97
:104400008A010020014800F0A2B800BF8A01002004
:1044100010B50446FFF7F0FFA3691BB1BDE81040DB
:10442000FFF7F0BFC4E912332365134B134A1B682F
:10443000A262A34204BF0123A361204600F020F83A
:104440006060204600F01CF8A060204600F018F8DC
:104450000022E06004216068FFF782FFA06801226B
:104460000921FFF77DFFE06802221221FFF778FFA4
:104470000123A361D2E700BFE0510008A94300086F
:10448000F8B50746FFF7ACFF1E4B1E68B36913B9BA
:104490003046FFF7BDFF4836D6E90134013B03D56E
:1044A00033680BB33668F7E7B4F90C50D5B9164B3F
:1044B000E36004F15800656600F047F8FFF796FFE7
:1044C000C4E90155C4E904552560A56108222946BF
:1044D00004F15C00FFF724FDC4E90D55C4E9125551
:1044E0002046F8BD6834D9E704213846FFF762FF5B
:1044F000044630600028D5D1FFF778FF0C233B60DD
:10450000EEE700BFE05100080100FFFF2DE9F8438E
:104510000646884600F148040027D4E90195B9F120
:10452000010905D52468002CF7D13846BDE8F88389
:10453000AB89012B07D9B5F90E30013303D02946D9
:104540003046C04707436835E9E770477047704712
:1045500070B50E46B1F90E10002996B014461D46EE
:1045600008DAB6F90C3000222A601A0610D44FF48B
:1045700080630EE06A4600F097FC0028F1DB019AA8
:1045800002F47042A2F500535A425A412A60EEE703
:1045900040230020236016B070BD00008B8973B5E6
:1045A0009D0706460C4607D504F1470323602361A7
:1045B0000123636102B070BD01AB6A46FFF7C8FF1B
:1045C00000990546304600F095F848B9B4F90C302A
:1045D0009A05EFD423F0030343F00203A381E3E73A
:1045E0000D4BB362A389206043F08003A381009B3D
:1045F0006361019B20615BB1B4F90E10304600F09D
:1046000065FC28B1A38923F0030343F00103A381D0
:10461000A0890543A581CDE7A943000837B5002946
:1046200044D051F8043C0190002BA1F10404B8BF20
:10463000E41800F095FC1E4A0198136833B96360D2
:10464000146003B0BDE8304000F090BCA34208D92C
:10465000256861198B4201BF19685B68491921609F
:10466000EDE71A465B680BB1A342FAD911685518F9
:10467000A5420BD1246821445418A3421160E0D113
:104680001C685B68536021441160DAE702D90C238F
:104690000360D6E7256861198B4204BF19685B681F
:1046A000636004BF491921605460CAE703B030BD9C
:1046B0008C01002070B50E4E0C463168054611B9CC
:1046C00000F07CFB30602146284600F077FB431C5D
:1046D0000AD0C41C24F00304A04207D0211A2846A3
:1046E00000F06CFB013001D14FF0FF34204670BD6B
:1046F000900100202DE9F041CD1C25F0030508357F
:104700000C2D38BF0C25002D074601DBA94205D929
:104710000C233B6000263046BDE8F0812E4E00F0B1
:104720001FFC33681C4634BB29463846FFF7C2FFDE
:10473000431C04464DD134682646002E40D12368E0
:104740003146384604EB030800F038FB80453AD187
:10475000216803356D1A25F0030508350C2D38BF87
:104760000C2529463846FFF7A5FF01302BD02368DA
:104770002B4423600EE02268521B1ED40B2A16D94C
:104780006119A342256018BF5960636808BF316092
:1047900062514B60384604F10B0600F0E7FB26F04F
:1047A0000706231DF21AB6D09B1BA350B3E762681D
:1047B000A3420CBF32605A60ECE723466468B2E75C
:1047C00034467668B9E70C233B60384600F0CEFBF0
:1047D000A1E72560DEE700BF8C0100202DE9F0474E
:1047E0008E689E4282460C4690461F4638D88A897B
:1047F00012F4906F32D025680969A5EB010965694B
:1048000005EB450505EBD57501334B446D109D4215
:1048100038BF1D46530531D52946FFF76BFF0646C5
:1048200050B90C23CAF80030A38943F04003A38198
:104830004FF0FF30BDE8F08721694A4600F068FB81
:10484000A38923F4906343F08003A381266165610B
:104850004E44A5EB09052660A5603E46BE4200D940
:104860003E4620683246414600F060FBA3689B1B31
:10487000A3602368334423600020DBE72A4600F06E
:104880007BFB06460028E1D121695046FFF7C6FEB2
:10489000C7E700002DE9F04F98468B891B069DB0B5
:1048A00007460D4614460ED50B6963B94021FFF744
:1048B00021FF2860286120B90C233B604FF0FF30B6
:1048C000D1E040236B610023099320238DF8293028
:1048D000CDF80C803023DFF8A8818DF82A304FF016
:1048E000010923469A4613F8012B0AB1252AF9D16A
:1048F000BAEB040B0BD05B46224629463846FFF73D
:104900006DFF013000F0AA80099A5A4409929AF882
:104910000030002B00F0A28000234FF0FF32CDE9E1
:1049200005230AF1010A049307938DF853301A9373
:104930005446052214F8011B5148FBF771FC049AF8
:10494000D8B9D00644BF20238DF85330110744BF97
:104950002B238DF853309AF800302A2B15D0079A64
:10496000544600204FF00A0C214611F8013B303B21
:10497000092B4ED9B0B1079214E0A0EB080309FA55
:1049800003F313430493A246D2E7039B191D1B684C
:104990000391002BBBBF5B4242F0020207930793D7
:1049A000B8BF049223782E2B0CD163782A2B35D1F3
:1049B000039B1A1D1B680392002BB8BF4FF0FF33F7
:1049C00002340593DFF8C8A0217803225046FBF794
:1049D00027FC40B14023A0EB0A0003FA00F0049B3F
:1049E00003430134049314F8011B26488DF8281062
:1049F0000622FBF715FC002838D0234B1BBB039B7A
:104A0000073323F0070308330393099B33440993C7
:104A100067E70CFB02320C460120A5E700230134B6
:104A2000059319464FF00A0C204610F8012B303A36
:104A3000092A03D9002BC5D00591C3E70CFB01213E
:104A400004460123F0E703AB00932A460F4B04A969
:104A50003846AFF30080421C0646D6D1AB895B06D0
:104A60003FF52CAF09981DB0BDE8F08F03AB009364
:104A70002A46064B04A9384600F07AF8EBE700BF57
:104A8000445200084E52000800000000DD470008B4
:104A90004A5200082DE9F047164699468A680B6984
:104AA000DDF820809342B8BF1346336091F843206D
:104AB00007460C460AB1013333602368990642BFAA
:104AC000336802333360256815F0060506D104F11A
:104AD000190AE36832689B1AAB4226DC94F843203B
:104AE000131E226818BF012392062BD404F143023F
:104AF00049463846C04701301ED02368E568326811
:104B000003F00603042B08BFAD1AA36822690CBF8B
:104B100025EAE57500259342C4BF9B1AED180026CF
:104B20001A34B5421AD1002008E001235246494602
:104B30003846C047013003D14FF0FF30BDE8F08761
:104B40000135C6E7E1185A1C302081F843002244A1
:104B500094F8451082F843100233C7E70123224638
:104B600049463846C0470130E6D00136D9E7000053
:104B70002DE9FF470F7E0C9D782F914680460C460D
:104B80009A4601F1430207D8622F0AD8002F00F09D
:104B9000D880582F00F0A38004F1420584F84270B9
:104BA0003AE0A7F16303152BF6D801A151F823F0E1
:104BB000094C00081D4C0008994B0008994B00084F
:104BC000994B0008994B00081D4C0008994B0008B0
:104BD000994B0008994B0008994B0008294D000893
:104BE0004D4C00080B4D0008994B0008994B0008EC
:104BF0004B4D0008994B00084D4C0008994B00089C
:104C0000994B0008134D00082B681A1D1B682A6079
:104C100004F1420584F842300123A3E020682968AA
:104C2000060601F104030AD50E682B60002E03DA94
:104C30002D23764284F843305E480A2319E00E683B
:104C40002B6010F0400F18BF36B2EFE72B682068DA
:104C5000191D2960010601D51E6802E04606FBD534
:104C60001E8854486F2F0CBF08230A23002184F8A4
:104C700043106568A560002DA2BF216821F00401E2
:104C800021600EB9002D4DD01546B6FBF3F103FBA4
:104C90001167C75D05F8017D3746BB420E46F4D962
:104CA000082B0BD12368DE0708D523696168994278
:104CB000DEBF302305F8013C05F1FF35521B2261B0
:104CC000CDF800A04B4603AA21464046FFF7E2FE7E
:104CD00001304CD14FF0FF3004B0BDE8F0873548CB
:104CE00081F845702968236851F8046B29601D0616
:104CF00014D5DF0744BF43F0200323601EB92368A7
:104D000023F0200323601023B0E7236843F020033F
:104D100023607823284884F84530E3E7590648BFE4
:104D2000B6B2E6E71546BBE72B6826686169181D31
:104D3000286035061B6801D5196002E07006FBD5B6
:104D40001980002323611546BAE72B681A1D2A60D3
:104D50001D68626800212846FBF762FA08B1401B13
:104D6000606063682361002384F84330A8E7236907
:104D70002A4649464046D0470130ABD023689B07BE
:104D800013D4E068039B9842B8BF1846A4E70123F8
:104D9000324649464046D04701309BD00135E36852
:104DA00003995B1AAB42F2DCEBE7002504F119062C
:104DB000F5E700BF555200086652000838B5064DA9
:104DC0000023044608462B60FEF7C0FF431C02D1B7
:104DD0002B6803B1236038BD9401002010B50C4648
:104DE000B1F90E1000F0F8F80028ABBF636DA3898D
:104DF0001B1823F48053ACBF6365A38110BD2DE95C
:104E0000F0411F468B89DB0505460C46164605D545
:104E1000B1F90E100223002200F068F8A389B4F95A
:104E20000E1023F48053A38132463B462846BDE84A
:104E3000F04100F017B810B50C46B1F90E1000F0B3
:104E400055F8431CA38915BF606523F4805343F4D0
:104E50008053A38118BFA38110BDB1F90E1000F0DB
:104E600013B8000038B5074D044608461146002225
:104E70002A601A46FEF719FF431C02D12B6803B1C2
:104E8000236038BD9401002038B5064D0023044648
:104E900008462B60FEF725FF431C02D12B6803B1A7
:104EA000236038BD9401002038B5074D0023044627
:104EB000084611462B60FEF720FF431C02D12B68E9
:104EC00003B1236038BD00BF9401002038B5064D02
:104ED0000023044608462B60FEF71FFF431C02D147
:104EE0002B6803B1236038BD9401002038B5074D0D
:104EF00004460846114600222A601A46FEF718FFAB
:104F0000431C02D12B6803B1236038BD94010020FB
:104F10000A44914200F1FF3300D1704710B511F8F7
:104F2000014B03F8014F9142F9D110BD884210B5F1
:104F300001EB020402D98442234607D8431EA14252
:104F400008D011F8012B03F8012FF8E702440146BD
:104F50008A4200D110BD13F8014D02F8014DF7E768
:104F60000148FFF7F3BA00BF880100200148FFF7AE
:104F7000EEBA00BF880100202DE9F04180461446BA
:104F80000E4621B9BDE8F0411146FFF7B3BB2AB97F
:104F9000FFF744FB25462846BDE8F08100F02EF8D7
:104FA0008442074602D8B4EB500F12D8214640463F
:104FB000FFF7A0FB05460028EDD0BC422246314653
:104FC00028BF3A46FFF7A4FF31464046FFF726FBCD
:104FD000E1E73546DFE7000038B5074D04460846EF
:104FE000114600222A601A46FEF742FE431C02D1F7
:104FF0002B6803B1236038BD9401002051F8043CB4
:10500000181F002BBCBF0B58C0187047F8B500BF65
:10501000F8BC08BC9E467047F8B500BFF8BC08BC99
:045020009E467047F1
:10502400456E7465722056616C696420506F7274A9
:105034000D00000061646D696E000000706173739F
:10504400776F72640000000056312E302042657480
:10505400610D0A00426F6F74696E6720696E746F28
:105064002055736572204170706C69636174696F57
:105074006E200D0A00000000457869746564200DF7
:105084000A000000496E76616C6964204F7074698F
:105094006F6E730D0A0000002A2A2A2A2A2A2A205F
:1050A40053544D3332463420426F6F742D6C6F610C
:1050B400646572204D656E75202A2A2A2A2A2A2AB6
:1050C4000D0A0A0009312E2055706772616465204B
:1050D4004170706C69636174696F6E200D0A000021
:1050E40009322E20426F6F74204170706C696361C5
:1050F40074696F6E200D0A0009782E204578697452
:10510400200D0A0A000000002A2A2A2A2A2A2A2A0A
:105114002A2A2A2A2A2A2A2A2A2A2A2A2A2A2A2AEB
:105124002A2A2A2A2A2A2A2A2A0D0A0A00000000E0
:10513400256300000D0A55736572205061737377FF
:105144006F72643A200000000D0A557365722041A5
:10515400757468656E746963617465640D0A000032
:105164000D0A57726F6E672055736572204E616D1C
:105174006520616E642050617373776F72640D0AE9
:105184000000000055736572204E616D653A200081
:105194002A2A2A2A2A2A2A2057656C636F6D6520D9
:1051A400746F2053544D3332463420426F6F742D44
:1051B4006C6F61646572202A2A2A2A2A2A2A0D0A17
:1051C4000A000000000000000000000001020304C7
:1051D400060708090000000001020304180000206B
:1051E40000000000000000000000000000000000BB
:1051F40000000000000000000000000000000000AB
:10520400000000000000000000000000000000009A
:10521400000000000000000000000000000000008A
:10522400000000000000000000000000000000007A
:10523400000000000000000000000000000000006A
:10524400232D302B2000686C4C006566674546476B
:1052540000303132333435363738394142434445EE
:10526400460030313233343536373839616263645D
:04527400656600006B
:0852780078B0FF7F0100000087
:04528000D50100084C
:04528400B10100086C
:10528800100000000179350038500008405000082F
:105298000024F40018000020000000000452000858
:1052A80024520008E451000800000000000000003B
:1052B80000000000000000000000000000000000E6
:1052C80000000000000000000000000000000000D6
:1052D80000000000000000000000000000000000C6
:1052E80000000000000000000000000000000000B6
:0852F8000000000000000000AE
:040000050800385166
:00000001FF
